:100000000C942A000C943F000C943F000C943F0089
:100010000C943F000C943F000C943F000C943F0064
:100020000C943F000C943F000C943F000C943F0054
:100030000C943F000C943F000C943F000C943F0044
:100040000C943F000C943F000C943F000C943F0034
:100050000C943F0011241FBECFE5D8E0DEBFCDBF1A
:1000600010E0A0E6B0E0E8EFFBE002C005900D92E2
:10007000A636B107D9F70E9449050C94FA050C94ED
:100080000000282F362F6AE00E94B105492F822FE9
:100090000E94B105332321F0313009F086C046C0FB
:1000A0008230D1F0833020F4813009F07EC006C068
:1000B000833001F1843009F078C02AC0EAE3F0E02F
:1000C000208181E090E002C0880F991F4A95E2F7F5
:1000D0008095822380830895E7E3F0E0208181E02A
:1000E00090E002C0880F991F4A95E2F7809582231D
:1000F00080830895E4E3F0E0208181E090E002C095
:10010000880F991F4A95E2F780958223808308958E
:10011000E1E3F0E0208181E090E002C0880F991FC8
:100120004A95E2F780958223808308958230B9F062
:10013000833018F48130C9F505C08330E9F084308C
:10014000A1F527C0EAE3F0E0208181E090E002C061
:10015000880F991F4A95E2F7282B20830895E7E33B
:10016000F0E0208181E090E002C0880F991F4A955D
:10017000E2F7282B20830895E4E3F0E0208181E07A
:1001800090E002C0880F991F4A95E2F7282B208340
:100190000895E1E3F0E0208181E090E002C0880F63
:1001A000991F4A95E2F7282B20830895282F362F90
:1001B0006AE00E94B105492F822F0E94B1053323C6
:1001C00021F0313009F086C046C08230D1F0833052
:1001D00020F4813009F07EC006C0833001F1843004
:1001E00009F078C02AC0EBE3F0E0208181E090E0E4
:1001F00002C0880F991F4A95E2F780958223808379
:100200000895E8E3F0E0208181E090E002C0880FEB
:10021000991F4A95E2F78095822380830895E5E34C
:10022000F0E0208181E090E002C0880F991F4A959C
:10023000E2F78095822380830895E2E3F0E0208155
:1002400081E090E002C0880F991F4A95E2F78095FF
:100250008223808308958230B9F0833018F481308E
:10026000C9F505C08330E9F08430A1F527C0EBE380
:10027000F0E0208181E090E002C0880F991F4A954C
:10028000E2F7282B20830895E8E3F0E0208181E065
:1002900090E002C0880F991F4A95E2F7282B20832F
:1002A0000895E5E3F0E0208181E090E002C0880F4E
:1002B000991F4A95E2F7282B20830895E2E3F0E0A6
:1002C000208181E090E002C0880F991F4A95E2F7F3
:1002D000282B20830895282F6AE00E94B105392F2A
:1002E000822F0E94B1058230B9F0833018F481303A
:1002F000C9F505C08330E9F08430A1F527C0EBE3F0
:10030000F0E0208181E090E002C0880F991F3A95CB
:10031000E2F7282720830895E8E3F0E0208181E0D8
:1003200090E002C0880F991F3A95E2F728272083B2
:100330000895E5E3F0E0208181E090E002C0880FBD
:10034000991F3A95E2F7282720830895E2E3F0E029
:10035000208181E090E002C0880F991F3A95E2F772
:10036000282720830895282F6AE00E94B105392F9D
:10037000822F0E94B1058230A1F0833018F48130C1
:1003800029F406C08330B1F08430E9F080E00895AC
:1003900089B390E002C0959587953A95E2F7817010
:1003A000089586B390E002C0959587953A95E2F757
:1003B0008170089583B390E002C0959587953A9532
:1003C000E2F78170089580B390E002C0959587951B
:1003D0003A95E2F781700895843009F463C085305E
:1003E00050F4813061F18130C8F08230C9F183303E
:1003F00009F0BDC046C0873009F487C0883038F4A2
:10040000853009F460C0863009F0B1C06DC0883015
:1004100009F48CC0893009F0AAC099C08EE060E070
:100420000E94D6008FE060E00E94D60080E160E08C
:100430000E94D60081E160E00E94D60008958EE01F
:1004400061E00E94D6008FE060E00E94D60080E16B
:1004500060E00E94D60081E160E00E94D60008952D
:100460008EE060E00E94D6008FE061E00E94D6003E
:1004700080E160E00E94D60081E160E00E94D60049
:1004800008958EE061E00E94D6008FE061E00E9456
:10049000D60080E160E00E94D60081E160E00E9429
:1004A000D60008958EE060E00E94D6008FE060E004
:1004B0000E94D60080E161E00E94D60081E160E008
:1004C0000E94D60008958EE061E00E94D6008FE081
:1004D00060E00E94D60080E161E00E94D60081E1E8
:1004E00060E00E94D60008958EE060E00E94D60091
:1004F0008FE061E00E94D60080E161E00E94D600BA
:1005000081E160E00E94D60008958EE061E00E94E3
:10051000D6008FE061E00E94D60080E161E00E9499
:10052000D60081E160E00E94D60008958EE060E090
:100530000E94D6008FE060E00E94D60080E160E07B
:100540000E94D60081E161E00E94D60008958EE00D
:1005500061E00E94D6008FE060E00E94D60080E15A
:1005600060E00E94D60081E161E00E94D60008951B
:10057000EF92FF920F931F93CF93DF93282F6AE0A0
:100580000E94B105E92E822F0E94B105F82EC0E02D
:10059000D0E000EA1FE08F2D0E94EC0186E161E0CF
:1005A0000E94D600C8010197F1F786E160E00E9441
:1005B000D6008E2D0E94EC0185E161E00E94D600FC
:1005C000C8010197F1F785E160E00E94D60021960D
:1005D00081E0C43FD807F9F6DF91CF911F910F91C9
:1005E000FF90EF9008958EE061E00E9441008FE05F
:1005F00061E00E94410080E161E00E94410081E1F0
:1006000061E00E94410085E161E00E94410086E1D5
:1006100061E00E9441000895813011F1813020F0A5
:10062000823009F051C036C084E10E94B3018130AC
:1006300009F04AC024E135E040E951E0CA010197E0
:10064000F1F721503040D1F784E10E94B3018130AD
:1006500009F03AC084E10E94B3018130D9F336C079
:100660008EE20E94B301813079F524E135E040E962
:1006700051E0CA010197F1F721503040D1F78EE2E5
:100680000E94B301813001F58EE20E94B3018130F6
:10069000D9F31CC08AE20E94B3018130A9F424E19D
:1006A00035E040E951E0CA010197F1F721503040AF
:1006B000D1F78AE20E94B301813031F48AE20E94CC
:1006C000B3018130D9F302C080E0089581E008953C
:1006D000813051F0813018F0823079F40AC084E121
:1006E00060E00E944100089584E160E00E944100C2
:1006F000089584E160E00E9441000895813049F04E
:10070000813018F0823061F408C080E20E946B01F1
:10071000089585E20E946B0108958BE20E946B01AF
:100720000895813051F0813018F0823079F40AC098
:1007300080E260E00E94D600089585E260E00E94B9
:10074000D60008958BE260E00E94D60008958130C3
:1007500051F0813018F0823079F40AC080E261E013
:100760000E94D600089585E261E00E94D6000895B7
:100770008BE261E00E94D6000895813051F0813013
:1007800018F0823079F40AC080E261E00E944100F2
:10079000089585E261E00E94410008958BE261E0E6
:1007A0000E94410008951F93182F682F61708EE0FA
:1007B0000E94D600612F669561708FE00E94D6007E
:1007C000612F66956695617080E10E94D60016954E
:1007D00016951695117081E1612F0E94D6001F9128
:1007E0000895FF920F931F93F82E85E160E00E9419
:1007F000D6008F2D82958F700E94D30387E161E030
:100800000E94D60000EA1FE0C8010197F1F787E1D6
:1008100060E00E94D600C8010197F1F78F2D0E9479
:10082000D30387E161E00E94D600C8010197F1F788
:1008300087E160E00E94D600C8010197F1F71F919F
:100840000F91FF90089581E00E94F1030895FF92B7
:100850000F931F93F82E85E161E00E94D6008F2D43
:1008600082958F700E94D30387E161E00E94D600D9
:1008700000EA1FE0C8010197F1F787E160E00E94FC
:10088000D600C8010197F1F78F2D0E94D30387E1AD
:1008900061E00E94D600C8010197F1F787E160E0AE
:1008A0000E94D600C8010197F1F71F910F91FF90A8
:1008B0000895AF92BF92CF92DF92EF92FF920F9383
:1008C000DF93CF93CDB7DEB762970FB6F894DEBF54
:1008D0000FBECDBF6B017C0199235CF4F094E094D2
:1008E000D094C094C11CD11CE11CF11C8DE20E946B
:1008F00027040FEF5E010894A11CB11C0F5F802F2D
:10090000992787FD90959501280F391F3A8B298BE0
:10091000C701B6012AE030E040E050E00E94BD058A
:10092000E989FA896083C701B6012AE030E040E036
:1009300050E00E94BD05822F932FA42FB52F6C018C
:100940007D01C114D104E104F104C1F600238CF04F
:100950007E010894E11CF11C802F992787FD90955A
:10096000F701E80FF91F8081805D0E942704015084
:100970009AF762960FB6F894DEBF0FBECDBFCF9147
:10098000DF910F91FF90EF90DF90CF90BF90AF90ED
:1009900008951F93CF93DF93EC018881882351F052
:1009A00010E00E9427041F5FFE01E10FF11D80810E
:1009B0008823B9F7DF91CF911F9108958EE061E010
:1009C0000E9441008FE061E00E94410080E161E00F
:1009D0000E94410081E161E00E94410085E161E007
:1009E0000E94410087E161E00E94410086E161E0F0
:1009F0000E94410086E160E00E94D60083E30E94ED
:100A0000F10382E30E94F10388E20E94F1038CE08B
:100A10000E94F10308958DE061E00E94D60028E570
:100A200032E040E951E0CA010197F1F7215030402E
:100A3000D1F78DE060E00E94D60008958DE060E07F
:100A40000E94D60008958DE061E00E94D6000895CE
:100A50008DE061E00E9441000895EF92FF921F93A4
:100A6000CF93DF930E94F30210E00F2EF0E1EF2E00
:100A7000F7E2FF2EF02DC0E9D1E0812F0E94B802ED
:100A80009701CE010197F1F721503040D1F71F5F58
:100A9000F4CF2F923F924F925F926F927F928F92FC
:100AA0009F92AF92BF92CF92DF92EF92FF920F93FD
:100AB0001F93DF93CF9300D000D000D0CDB7DEB727
:100AC0000E94DE04DE011196E0E6F0E086E001908F
:100AD0000D928150E1F7CC24DD243E010894611C85
:100AE000711C0F2EF0E14F2EF7E25F2EF02D0F2E2E
:100AF000F0E9EF2EF1E0FF2EF02D0F2EF0EA2F2E71
:100B0000FFE03F2EF02DAA24BB240F2EF0E48F2E01
:100B1000FCE99F2EF02DC3010E94C9049201C70178
:100B20000197F1F721503040D1F70E942304C10111
:100B30000197F1F7DD204CF0850180E20E94270447
:100B40000F5F1F4FC016D106C4F7C4010197F1F71C
:100B50000894C11CD11C80E1C816D104E4F26501DF
:100B6000DACF991B79E004C0991F961708F0961BFD
:100B7000881F7A95C9F78095089597FB092E052659
:100B80000ED057FD04D014D00AD0001C38F4509574
:100B90004095309521953F4F4F4F5F4F0895F6F7A1
:100BA00090958095709561957F4F8F4F9F4F0895D9
:100BB000A1E21A2EAA1BBB1BFD010DC0AA1FBB1F61
:100BC000EE1FFF1FA217B307E407F50720F0A21BD3
:100BD000B30BE40BF50B661F771F881F991F1A9440
:100BE00069F760957095809590959B01AC01BD016A
:080BF000CF010895F894FFCF36
:060BF80041686D65640018
:00000001FF
